:020000040800F2
:1000000018040020010100084D09000849090008F2
:100010004B0900086D010008F90900080000000004
:10002000000000000000000000000000510900086E
:100030006F010008000000004F0900085309000884
:100040001B0100081B0100081B0100081B01000820
:100050001B0100081B0100081B0100081B01000810
:100060001B0100081B0100081B0100081B01000800
:100070001B0100081B0100081B0100081B010008F0
:100080001B0100081B0100081B0100081B010008E0
:100090001B0100081B0100081B0100081B010008D0
:1000A0001B0100081B0100081B0100081B010008C0
:1000B0001B0100081B010008000000001B010008D4
:1000C0001B01000800000000000000001B010008E8
:1000D000000000001B0100081B01000800000000D8
:1000E0001B0100081B0100081B010008DFF80CD0F1
:1000F00000F02AF800480047390A000818040020D8
:100100000648804706480047FEE7FEE7FEE7FEE7B1
:10011000FEE7FEE7FEE7FEE7FEE7FEE7B1090008BF
:10012000ED000008D2B201E000F8012B491EFBD21D
:1001300070470022F6E710B513460A4604461946F2
:10014000FFF7F0FF204610BD064C074D06E0E068C3
:1001500040F0010394E8070098471034AC42F6D30E
:10016000FFF7C8FF700B0008900B0008FEE7704710
:1001700070B5044600F0F2F80546601C02D0044851
:100180000078044400F0EAF8401BA042FAD370BDA6
:10019000080000202DE9F84FDFF894A100220AF1B1
:1001A000040B14464FF0010C4FF00F090BF1040E35
:1001B0000B680CFA04F52B40AB4271D15D4E4F68D1
:1001C000A7EB0608B7422BD00DDC032F34D005DC9B
:1001D00037B3012F19D0022F2FD11BE0112F16D0CA
:1001E000122F2AD119E0B8F5881F19D006DCB8F50E
:1001F000803F15D0B8F5801F1FD111E0B8F5001F62
:100200000ED0B8F5041F18D10AE0CA6815E0CA6814
:10021000121D12E0CA6808320FE0CA680C320CE006
:100220008A682AB1012A4FF0080203D0456104E030
:10023000042202E0056100E00022FF2B01D80746FE
:1002400001E000F104074FEA840601D9A6F1200677
:100250003D6809FA06F825EA080502FA06F645EAB5
:1002600006053D604D68ED005CD5334DAE6946F046
:100270000106AE61AD6924F0030605F001050095A5
:100280002E4D7719BD68A607360F09FA06F825EA3C
:100290000805DFF8AC80404503D14FF0000810E0BE
:1002A00040E0DFF8A080404502D14FF0010808E0AF
:1002B000DFF89480404502D14FF0020801E04FF092
:1002C000030808FA06F848EA0508C7F808804D68E8
:1002D000ED0305D5DAF800501D43CAF8005004E0DC
:1002E000DAF800609E43CAF800604D68DBF80060F1
:1002F000AD035D4601D51E4300E09E432E604D6870
:10030000DEF80060ED02754601D51E4300E09E4315
:100310002E604D68AD020D4D2E6801D51E4300E0E4
:100320009E432E60641C102CFFF442AFBDE8F88F92
:1003300000040140000011100010024000000140C4
:1003400000080140000C0140001001400C04014075
:100350000AB1016170470904FBE7000001488068A9
:1003600070470000080000200248816802781144AC
:100370008160704708000020074810B5016841F00F
:1003800010010160032000F04BF80F2000F006F888
:1003900000F024F8002010BD0020024070B50D4D83
:1003A00004464FF47A712878B1FBF0F00A490968E5
:1003B000B1FBF0F000F0B4FA48B9102C07D20022DB
:1003C0002146501E00F00CF800206C6070BD01202A
:1003D00070BD0000080000200000002070470000F1
:1003E000F0B40E4B1B680C46C3F30223C3F10705A0
:1003F000042D00D90425191D072901D2002300E08E
:10040000DB1E012606FA05F1491E214099409E4057
:10041000761E16403143F0BC00F0EFBA0CED00E060
:10042000064900F0070208684FF6FF03184040EA4B
:100430000220034A10430860704700000CED00E002
:100440000000FA052DE9F047DFF8548105460E4615
:10045000D8F8000000F00700B0420CD2D8F8001025
:1004600021F007013143C8F80010D8F8000000F06F
:100470000700B0426FD128684A4C810712D5400767
:1004800003D5606840F4E06060602878000703D519
:10049000606840F4605060606068A96820F0F00017
:1004A000084360602878C00744D06868012816D0E7
:1004B0002168022816D0890700294CDA616821F0EA
:1004C000030101436160FFF749FF6968074641F294
:1004D000883001290ED00229814618D026E02168F3
:1004E0008903E9E78901E7E7FFF738FFC11B4945C1
:1004F00001D918E081466068C0F381000128F3D17A
:1005000018E000BFFFF72AFFC11B49450BD8606800
:10051000C0F381000228F5D10CE000BFFFF71EFFF9
:10052000C11B494502D90320BDE8F087606810F07F
:100530000C0FF3D1D8F80010404601F00701B1428A
:100540000BD9016821F0070131430160006800F018
:100550000700B04201D00120E6E72878400705D522
:100560006068E96820F4E06008436060287800076C
:1005700006D56068296920F4605040EAC1006060D7
:1005800000F016F86168084AC1F30311515CC840D5
:10059000064908600F20FFF701FF0020C4E70000B4
:1005A0000020024000100240600B00080000002004
:1005B00012A185B00FC98DE80F0014A0144A00687D
:1005C00004905168134801F00C03042B10D0082B41
:1005D0000ED1C1F38343C9031DF803000AD5516846
:1005E00004AAC1F34041515C0A4A5043B0FBF1F008
:1005F00005B0704708494843FAE7000002030405C4
:10060000060708090A0B0C0D0E0F1010010200005E
:100610000010024000127A0000093D002DE9F84F59
:1006200004460078B94DC00748D06868C0F381001F
:10063000012807D06868C0F38100022809D16868E2
:10064000C00306D52868800338D5606800286FD0BD
:1006500034E06068B0F5803F0BD010B1B0F5A02F4A
:1006600011D0286820F480302860286820F4802089
:1006700002E0286840F480302860606888B1FFF7A5
:100680006DFE064609E0286840F480202860F0E707
:10069000FFF764FE801B642875D828688003F7D5AF
:1006A0000CE0FFF75BFE064605E000BFFFF756FED5
:1006B000801B6428F0D828688003F7D42078944EF3
:1006C00080074FF001094FF000083BD5686810F033
:1006D0000C0F07D06868C0F38100022809D1686850
:1006E000C00306D42868800714D5206901281FD1CB
:1006F00010E02069B0B1C6F80090FFF72FFE074662
:1007000005E000BFFFF72AFEC01B0228C4D82868F6
:100710008007F7D52868616920F0F80040EAC10039
:1007200028600FE0C6F80080FFF718FE074606E0D5
:10073000E9E000BFFFF712FEC01B022823D828689B
:100740008007F7D4207800072CD57248A169D9B169
:10075000C0F80090FFF702FE074604E0FFF7FEFD39
:10076000C01B02280FD8686A8007F7D56A484FF483
:10077000FA510068B0FBF1F0009000BF0098411EF4
:100780000091FAD20EE080E0C0F80080FFF7E6FDAD
:10079000074604E0FFF7E2FDC01B022875D8686A2F
:1007A0008007F7D42078400760D5E8690027C000AB
:1007B00008D4E86940F08050E861E869012700F05A
:1007C0008050009055480168C90513D401688346DC
:1007D00041F480710160FFF7C1FD824606E000BF71
:1007E000FFF7BCFDA0EB0A0064284ED8DBF8000040
:1007F000C005F5D5E06801280AD008B1052813D056
:10080000286A20F001002862286A20F0040002E033
:10081000286A40F001002862E06841F2883B98B104
:10082000FFF79CFD82460BE0286A40F00400286236
:10083000EEE700BFFFF792FDA0EB0A0159455AD839
:10084000286A8007F6D50CE0FFF788FD824605E0B0
:10085000FFF784FDA0EB0A0159454CD8286A8007B0
:10086000F6D41FB1E86920F08050E861E06988B3F0
:100870006968C1F38101022945D00228C6F8608069
:1008800004D0FFF76BFD044638E034E0FFF766FD67
:10089000074604E0FFF762FDC01B02282BD828683A
:1008A0008001F7D4206AB0F5803F05D16868A1685F
:1008B00020F4003008436860D4E9080108436968FF
:1008C00021F4741108436860C6F86090FFF746FD94
:1008D000044606E015E000BFFFF740FD001B0228BC
:1008E00009D828688001F7D50BE000BFFFF736FD77
:1008F000001B022802D90320BDE8F88F2868800178
:10090000F4D40020F8E70120F6E7000000100240D0
:10091000000042428004424200000020007000407B
:1009200010B5401EB0F1807F01D3012010BD4FF003
:10093000E02460610F21601700F05FF80020A061E3
:1009400007202061002010BDFEE7FEE770477047DA
:100950007047FFF709BD30B58FB014210AA8FFF723
:10096000E8FB28216846FFF7E4FB01200090000423
:100970000024CDE901040225CDE907504FF4E01031
:1009800009906846FFF74AFE00B1FEE70F200A9083
:10099000CDE90B544FF48060CDE90D0402210AA883
:1009A000FFF750FD002800D0FEE70FB030BD00007B
:1009B0000D48016841F00101016041680B4A114096
:1009C000416001680A4A11400160016821F48021F8
:1009D0000160416821F4FE0141604FF41F01816014
:1009E0000449C00308607047001002400000FFF88F
:1009F000FFFFF6FE08ED00E0FEE70907090E0028FC
:100A000004DB00F1E02080F80014704700F00F00D4
:100A100000F1E02080F8141D704702E008C8121FA2
:100A200008C1002AFAD170477047002001E001C1D7
:100A3000121F002AFBD1704786B0FFF79DFCFFF71D
:100A40008AFF00244348009401940294039481692E
:100A500041F020018161816901F0200104918169E7
:100A600041F00401816180693B4D00F00400049075
:100A70000022F8212846FFF76BFCF82000900120A7
:100A8000CDE90104039069462846FFF783FB2C4615
:100A9000324D012208212046FFF75AFC0122402155
:100AA0002046FFF755FC002220212046FFF750FC8E
:100AB000002280212046FFF74BFC0120FFF758FB66
:100AC000002208212046FFF743FC01224021204656
:100AD000FFF73EFC012220212046FFF739FC0022CF
:100AE00080212046FFF734FC0120FFF741FB002264
:100AF00008212046FFF72CFC002240212046FFF76A
:100B000027FC012220212046FFF722FC0122802120
:100B10002046FFF71DFC0120FFF72AFB01220821D8
:100B20002046FFF715FC002240212046FFF710FC6D
:100B3000002220212046FFF70BFC012280212046C5
:100B4000FFF706FC0120FFF713FB2868401C286014
:100B50009FE7000000100240000801400400002050
:100B6000000000000000000001020304060708095D
:100B7000900B000800000020140000001A0A000872
:100B8000A40B000814000020040400002A0A000836
:100B900000A24A0400000000010000001000000054
:040BA0000000000051
:04000005080000ED02
:00000001FF
